:020000040000FA
:100000000C94D6040C94F3040C94F3040C94F304B1
:100010000C94F3040C94F3040C94F3040C94F30484
:100020000C94F3040C94F3040C94F3040C94F30474
:100030000C94F3040C94990B0C94F3040C94F304B7
:100040000C944F0B0C94F3040C94F3040C94F304F1
:100050000C94F3040C94F3040C94F3040C94F30444
:100060000C94F3040C94F304040620000000000038
:1000700000404040004000A0A000000000A0E0A020
:10008000E0A0004060C060C000A0204080A0002030
:1000900040C0A0E0008080000000004080808040E0
:1000A0000080404040800040A0400000000040E050
:1000B0004000000000008080000000E00000000020
:1000C0000000008000202040808000E0A0A0A0E090
:1000D0000040C04040E000E020E080E000E020E0A0
:1000E00020E000A0A0E0202000E080E020C000C0D0
:1000F00080E0A0E000E02040808000E0A0E0A0E000
:1001000000E0A0E02060000040004000000040004F
:1001100040800020408040200000E000E00000809F
:100120004020408000C02040004000E0A0A0E0E06F
:1001300000E0A0E0A0A000C0A0E0A0C000E080809F
:1001400080E000C0A0A0A0C000E080E080E000E06F
:1001500080E0808000E08080A0E000A0A0E0A0A07F
:1001600000E0404040E000202020A0E00080A0C04F
:10017000C0A00080808080E000A0E0E0A0A000C0DF
:10018000A0A0A0A00040A0A0A04000E0A0E080802F
:100190000040A0A0E06600E0A0C0E0AA00E080E08F
:1001A00020E000E04040404000A0A0A0A0E000A06F
:1001B000A0A0A04000A0A0E0E0A200A0A040A0A0BD
:1001C00000A0A040404000E0204080E000C08080CF
:1001D00080C000008040202000C0404040C000405F
:1001E000A00000000000000000E0008040000000CF
:1001F000000060A0A060008080C0A0C000006080FF
:10020000806000202060A0600040A0E0806000606E
:1002100040E040400060A06020C0008080C0A0A0FE
:100220000040004040400040004040C0008080A0AE
:10023000C0A000C0404040E00000A0E0A0A000003E
:10024000C0A0A0A0000040A0A0400000C0A0C080AE
:10025000000060A060200000C0A08080000060401E
:1002600020600040E04040400000A0A0A0600000EE
:10027000A0A0A0400000A0A0E0A00000A04040A0DE
:100280000000A0E020400000E04080E0002040C0EE
:10029000402200404000404000804060408000001C
:1002A000A040000000060820000000000000000040
:1002B00040404040400040005050500000000000CE
:1002C000000050F850F850002070A07028702000F6
:1002D00000C8D0205898000020508040A8906800A6
:1002E000404040000000000010204040402010002E
:1002F00040201010102040001038100000000000B6
:10030000002020F820200000000000000010100055
:10031000000000F8000000000000000000100000D5
:1003200000081020408000007088A8A88870000095
:1003300020602020207000007088102040F800000D
:10034000F810201088700000909090F810100000B5
:10035000F880F008887000007080F08888700000D5
:10036000F8081020408000007088708888700000B5
:1003700070888878087000000000200000200000CD
:10038000000020002020400000186080601800005D
:10039000000078007800000000C0300830C0000085
:1003A0006090202000200000708898A8908870003D
:1003B000205088F888880000F088F08888F00000D5
:1003C0007088808088700000F088888888F000003D
:1003D000F880F88080F80000F880F08080800000CD
:1003E00070888098887000008888F8888888000065
:1003F0007020202020700000381010109060000045
:100400008890E0A0908800008080808080F80000C4
:1004100088D8A8A8888800008888C8A8988800007C
:100420007088888888700000F088F08080800000E4
:10043000708888A890680000F088F0A0908800007C
:100440007880700808F00000F820202020200000AC
:1004500088888888887000008888888850200000F4
:100460008888A8A8A85000008850205088880000DC
:100470008888502020200000F808102040F8000054
:10048000E080808080E000000080402010080000B4
:10049000380808080838000020500000000000005C
:1004A000000000000000F800804000000000000094
:1004B00000601070906000008080E09090E000008C
:1004C000000070808070000010107090907000002C
:1004D000006090F0807000003040E040404000003C
:1004E00000609070101060008080E090909000009C
:1004F000200020202070000010003010101060003C
:100500008090A0C0A09000006020202020700000FB
:10051000000050A8A8A800000000F088888800000B
:10052000000060909060000000006090F08080000B
:1005300000006090F01010000000B0484040000043
:1005400000304020106000004040E040404000008B
:10055000000090909060000000008888502000000B
:10056000000088A8A8500000008850205088000093
:1005700000009090604080000000F02040F00000FB
:1005800020404080404020002020202020202000CB
:10059000201010081010200040A8100000000000DB
:1005A000000000000000000008080000000000003B
:1005B000000000003E41554155493E003E7F6B7FA3
:1005C0006B773E0022777F7F3E1C0800081C3E7F31
:1005D0003E1C0800081C2A7F2A081C00081C3E7FBD
:1005E0003E081C00001C3E3E3E1C00FFFFE3C1C154
:1005F000C1E3FF00001C2222221C00FFFFE3DDDD1F
:10060000DDE3FF000F03053948483000083E081CB1
:1006100022221C0018141010307060000F191113E2
:1006200037766000082A1C771C2A080060787E7FD5
:100630007E786000030F3F7F3F0F0300081C2A08ED
:100640002A1C080066666666006666003F65653DB2
:10065000050505000C324824124C30000000000053
:100660007F7F7F00081C2A082A1C3E00081C3E7F52
:100670001C1C1C001C1C1C7F3E1C0800080C7E7FE0
:100680007E0C080008183F7F3F18080000007070BB
:10069000707F7F000014227F22140000081C1C3E83
:1006A0003E7F7F007F7F3E3E1C1C08000000000054
:1006B00000000000183C3C181800180036361400E2
:1006C0000000000036367F367F363600081E201CBC
:1006D000023C080060660C18306606003C663C2848
:1006E00065663F00181818300000000060301818C8
:1006F00018306000060C1818180C060000361C7F15
:100700001C3600000008083E080800000000003009
:10071000303060000000003C0000000000000000DD
:100720000060600000060C18306000003C666E76C9
:1007300066663C001818381818187E003C66060CCF
:1007400030607E003C66061C06663C000C1C2C4C8F
:100750007E0C0C007E607C0606663C003C66607C7D
:1007600066663C007E660C0C181818003C66663CF9
:1007700066663C003C66663E06663C000018180053
:10078000181800000018180018183000060C18304F
:10079000180C060000003C003C0000006030180C03
:1007A000183060003C66061C1800180038445C587D
:1007B000423C00003C66667E666666007C66667C3F
:1007C00066667C003C66606060663C007C666666CF
:1007D00066667C007E60607C60607E007E60607C1F
:1007E000606060003C6660606E663C006666667EC7
:1007F000666666003C18181818183C001E0C0C0C95
:100800006C6C3800666C7870786C66006060606054
:1008100060607E0063777F6B6363630063737B6FED
:10082000676363003C66666666663C007C66666677
:100830007C6060003C6666666E3C06007C66667C9A
:10084000786C66003C66603C06663C007E5A181870
:10085000181818006666666666663E006666666616
:10086000663C18006363636B7F7763006363361CC9
:10087000366363006666663C181818007E060C181E
:1008800030607E001E18181818181E0000603018FE
:100890000C0600007818181818187800081422415F
:1008A000000000000000000000007F000C0C0600AB
:1008B0000000000000003C063E663E006060607C78
:1008C00066667C0000003C6660663C000606063EEC
:1008D00066663E0000003C667E603C001C363030A0
:1008E0007C303000003E66663E063C006060607C06
:1008F000666666000018001818183C000C000C0C06
:100900006C6C38006060666C786C6600181818189B
:1009100018181800000063777F6B6B0000007C7E66
:100920006666660000003C6666663C00007C6666A3
:100930007C606000003C6C6C3C0D0F0000007C662D
:100940006660600000003E403C027C000018187E9B
:10095000181818000000666666663E000000006613
:10096000663C18000000636B6B6B3E000000663C49
:10097000183C6600000066663E063C0000003C0C29
:1009800018303C000E18183018180E0018181800EF
:10099000181818007018180C1818700000003A6C1D
:1009A00000000000081C366341417F0011241FBE77
:1009B000CFEFD8E0DEBFCDBF11E0A0E0B1E0E6ECC4
:1009C000FBE102C005900D92A234B107D9F721E0F6
:1009D000A2E4B1E001C01D92A037B207E1F70E9486
:1009E000C00B0C94E10D0C94000080915801909183
:1009F0006401E0915901F0915A0131962491492FF7
:100A0000421B550B84171506CCF0E491A0916A01A6
:100A1000B0916B01809165019D01E89F200D311D12
:100A20001124F9019D01989F200D311D11242E17CD
:100A30003F0740F080818D931192F9CFE491E80F48
:100A4000E093580108952F923F924F925F926F92D8
:100A50007F928F929F92AF92BF92CF92DF92EF924E
:100A6000FF920F931F93CF93DF9300D000D000D05D
:100A7000CDB7DEB70091590110915A01F8013296B5
:100A8000549198012F5F3F4FF901F490F801949130
:100A9000F9012491451B429FA0011124DA0113960C
:100AA000282F277078E0721B911105C0F801EA0F1A
:100AB000FB1F94911196F11005C0F801EA0FFB1F7E
:100AC000F4901196F92FF770F983E92FE695E695E2
:100AD000E695FF2309F498C0EF5F90916501822E9F
:100AE000912C4981480D592D511D5E834D832FEF67
:100AF00030E069010D8002C0D594C7940A94E2F7F2
:100B0000472F50E05A83498301C0220F7A95EAF7B4
:100B1000AC2CE13009F0A12CA22A4D815E81485015
:100B200051092FEF30E002C0359527954A95E2F73D
:100B3000E22E292E312C869586958695969FB001BA
:100B40001124860F972F911DB12C2E2F2150330B7E
:100B50003C832B83FB1409F481C0E0915501F09193
:100B60005601E80FF91FD0802D2D2A212083BD01C9
:100B70006F5F7F4FF801EA0FFB1F2491E091550151
:100B8000F0915601E80FF91F422F50E0082C02C0E7
:100B9000559547950A94E2F73081432B40834B806B
:100BA0005C80460E571E3C016A1A7B0AD301A60FD1
:100BB000B71F409155015091560130E0098002C0A5
:100BC000220F331F0A94E2F76415750500F5FA0148
:100BD000EA0FFB1FD0802083F801E60FF71F249156
:100BE0004091550150915601A40FB51F422F50E07E
:100BF000082C02C0559547950A94E2F73C91432B87
:100C00004C936F5F7F4FD2CF38E0398366CFED8151
:100C1000FE813897B0F4FD013197E40FF51FDC2019
:100C20004081D42AD0824091550150915601A40FA1
:100C3000B51FEC912E2B2C93B394820D931DDB01E9
:100C400089CFFA01EA0FFB1FD0804D815E814830C9
:100C5000510549F34D2D4E214083E5CF26960FB621
:100C6000F894DEBF0FBECDBFDF91CF911F910F91E2
:100C7000FF90EF90DF90CF90BF90AF909F908F90BC
:100C80007F906F905F904F903F902F900895CF93FB
:100C90008A30B9F180F5882391F18830B9F1C82FF5
:100CA00080915701E0915901F0915A01E49120910E
:100CB000650198E0299F900111242E1B31094C2FCA
:100CC00060915801821713064CF0109257010E9450
:100CD000F5044C2F60915801809157010E94230523
:100CE000E0915901F0915A018491E0915701E80F88
:100CF000E093570104C08D30C9F08E3081F6CF915A
:100D0000089510925701CF910C94F504E091590188
:100D1000F0915A01E491809157018E1B8093570105
:100D200040E260915801CF910C9423051092570135
:100D3000E6CF08950F93CF93DF93EBE5F1E0A7851E
:100D4000B089C0914601D09147018285AC0FBD1F8B
:100D50000BB10F7703C000FA07F90BB90D90000033
:100D600007FA07F90BB900000000000006FA07F9BE
:100D70000BB900000000000005FA07F90BB90000EC
:100D80000000000004FA07F90BB9000000000000A1
:100D900003FA07F90BB900000000000002FA07F996
:100DA0000BB900000000000001FA07F90BB98A95A1
:100DB00091F60000000000FA07F90BB90BB10F77AC
:100DC00007FB07F90BB9DF91CF910F9108950F93AE
:100DD000CF93DF93EBE5F1E0A785B089C0914601A1
:100DE000D09147018285AC0FBD1F0BB10F7703C0B7
:100DF00000FA07F90BB90D9007FA07F90BB90000D3
:100E0000000006FA07F90BB90000000005FA07F91F
:100E10000BB90000000004FA07F90BB9000000004C
:100E200003FA07F90BB90000000002FA07F90BB941
:100E300000008A9501FA07F90BB9D1F6000000FA13
:100E400007F90BB90BB10F7707FB07F90BB9DF9166
:100E5000CF910F9108950F93CF93DF93EBE5F1E0DE
:100E6000A785B089C0914601D09147018285AC0F1A
:100E7000BD1F02C0000C0BB80D9000000BB80000A5
:100E80000000000C0BB800000000000C0BB80000C4
:100E90000000000C0BB800000000000C0BB80000B4
:100EA0000000000C0BB80000000C8A950BB811F77D
:100EB0000000000C0BB80000000000005F98DF91FC
:100EC000CF910F9108950F93CF93DF93EBE5F1E06E
:100ED000A785B089C0914601D09147018285AC0FAA
:100EE000BD1F8E3191F08D3151F08C3149F08B3135
:100EF00041F08A3139F0893131F0883129F01CC054
:100F000032C048C05EC074C08AC00D900BB80000EB
:100F1000000C0BB80000000C0BB80000000C0BB864
:100F20000000000C0BB80000000C0BB80000000C17
:100F30000BB80000000C0BB80D900BB80000000CB3
:100F40000BB80000000C0BB80000000C0BB8000040
:100F5000000C0BB80000000C0BB80000000C0BB824
:100F60000000000C0BB80D900BB80000000C0BB883
:100F70000000000C0BB80000000C0BB80000000CC7
:100F80000BB80000000C0BB80000000C0BB8000000
:100F9000000C0BB80D900BB80000000C0BB8000053
:100FA000000C0BB80000000C0BB80000000C0BB8D4
:100FB0000000000C0BB80000000C0BB80000000C87
:100FC0000BB80D900BB80000000C0BB80000000C23
:100FD0000BB80000000C0BB80000000C0BB80000B0
:100FE000000C0BB80000000C0BB80000000C0BB894
:100FF0000D900BB80000000C0BB80000000C0BB8F3
:101000000000000C0BB80000000C0BB80000000C36
:101010000BB80000000C0BB80000000C0BB80D90D2
:101020000BB80000000C0BB80000000C0BB800005F
:10103000000C0BB80000000C0BB80000000C0BB843
:101040000000000C0BB80000000C0BB80D900BB8A2
:101050000000000C0BB80000000C0BB80000000CE6
:101060000BB80000000C0BB80000000C0BB800001F
:10107000000C0BB80000000C0BB80D900BB8000072
:10108000000C0BB80000000C0BB80000000C0BB8F3
:101090000000000C0BB80000000C0BB80000000CA6
:1010A0000BB80000000C0BB80D900BB80000000C42
:1010B0000BB80000000C0BB80000000C0BB80000CF
:1010C000000C0BB80000000C0BB80000000C0BB8B3
:1010D0000000000C0BB80D900BB80000000C0BB812
:1010E0000000000C0BB80000000C0BB80000000C56
:1010F0000BB80000000C0BB80000000C0BB800008F
:10110000000C0BB80D900BB80000000C0BB80000E1
:10111000000C0BB80000000C0BB80000000C0BB862
:101120000000000C0BB80000000C0BB80000000C15
:101130000BB80D900BB80000000C0BB80000000CB1
:101140000BB80000000C0BB80000000C0BB800003E
:10115000000C0BB80000000C0BB80000000C0BB822
:101160000D900BB80000000C0BB80000000C0BB881
:101170000000000C0BB80000000C0BB80000000CC5
:101180000BB80000000C0BB80000000C0BB80D9061
:101190000BB80000000C0BB80000000C0BB80000EE
:1011A000000C0BB80000000C0BB80000000C0BB8D2
:1011B0000000000C0BB80000000C0BB80D900BB831
:1011C0000000000C0BB80000000C0BB80000000C75
:1011D0000BB80000000C0BB80000000C0BB80000AE
:1011E000000C0BB80000000C0BB80D900BB8000001
:1011F000000C0BB80000000C0BB80000000C0BB882
:101200000000000C0BB80000000C0BB80000000C34
:101210000BB80000000C0BB80D900BB80000000CD0
:101220000BB80000000C0BB80000000C0BB800005D
:10123000000C0BB80000000C0BB80000000C0BB841
:101240000000000C0BB80D900BB80000000C0BB8A0
:101250000000000C0BB80000000C0BB80000000CE4
:101260000BB80000000C0BB80000000C0BB800001D
:10127000000C0BB80D900BB80000000C0BB8000070
:10128000000C0BB80000000C0BB80000000C0BB8F1
:101290000000000C0BB80000000C0BB80000000CA4
:1012A0000BB80D900BB80000000C0BB80000000C40
:1012B0000BB80000000C0BB80000000C0BB80000CD
:1012C000000C0BB80000000C0BB80000000C0BB8B1
:1012D0000D900BB80000000C0BB80000000C0BB810
:1012E0000000000C0BB80000000C0BB80000000C54
:1012F0000BB80000000C0BB80000000C0BB80D90F0
:101300000BB80000000C0BB80000000C0BB800007C
:10131000000C0BB80000000C0BB80000000C0BB860
:101320000000000C0BB80000000C0BB80D900BB8BF
:101330000000000C0BB80000000C0BB80000000C03
:101340000BB80000000C0BB80000000C0BB800003C
:10135000000C0BB80000000C0BB80D900BB800008F
:10136000000C0BB80000000C0BB80000000C0BB810
:101370000000000C0BB80000000C0BB80000000CC3
:101380000BB80000000C0BB80D900BB80000000C5F
:101390000BB80000000C0BB80000000C0BB80000EC
:1013A000000C0BB80000000C0BB80000000C0BB8D0
:1013B0000000000C0BB80D900BB80000000C0BB82F
:1013C0000000000C0BB80000000C0BB80000000C73
:1013D0000BB80000000C0BB80000000C0BB80000AC
:1013E000000C0BB80D900BB80000000C0BB80000FF
:1013F000000C0BB80000000C0BB80000000C0BB880
:101400000000000C0BB80000000C0BB80000000C32
:101410000BB80D900BB80000000C0BB80000000CCE
:101420000BB80000000C0BB80000000C0BB800005B
:10143000000C0BB80000000C0BB80000000C0BB83F
:101440000D900BB80000000C0BB80000000C0BB89E
:101450000000000C0BB80000000C0BB80000000CE2
:101460000BB80000000C0BB80000000C0BB800001B
:1014700000005F98DF91CF910F91089520915B015B
:1014800030915C01809162019091630128173907C6
:101490000CF457C08CEA93E0909389008093880005
:1014A00010925C0110925B0180915D0190915E0150
:1014B000A0915F01B09160010196A11DB11D8093C3
:1014C0005D0190935E01A0935F01B09360018091F4
:1014D000420190914301A0914401B0914501892BB3
:1014E0008A2B8B2B51F18091420190914301A09165
:1014F0004401B0914501181619061A061B069CF402
:101500008091420190914301A0914401B091450125
:101510000197A109B1098093420190934301A093DF
:101520004401B093450180915B0190915C0101966B
:1015300090935C0180935B0108951092B1002B9809
:10154000F2CF20915B0130915C0180916901082EFE
:10155000000C990B2817390731F78AE490E0909333
:101560008900809388008AEB9AE0909349018093E8
:101570004801D9CF80915B0190915C01209161017C
:1015800028171906C1F41092470110924601809164
:1015900067018093680189EE9AE0909349018093F6
:1015A000480180915B0190915C01019690935C01F0
:1015B00080935B01089520915B0130915C018091E3
:1015C0006201909163012817390759F78EE39AE079
:1015D000E4CF30918400209166012A50231B2350D0
:1015E000F0F72D5F19F02A9511F001C00000E0918D
:1015F0004A01F0914B010995909168018091670132
:10160000911138C080936801209165014091460195
:1016100050914701240F352F311D309347012093FE
:10162000460120915B0130915C012F5F3F4F082EF6
:10163000000C990B019660916401689FA001699F5D
:10164000500D112480916101840F952F911D281751
:10165000390731F48AEB9AE090934901809348016D
:1016600080915B0190915C01019690935C01809365
:101670005B010895915090936801D3CFCF93DF938E
:10168000EC018991882319F00E944706FACF8DE07A
:101690000E9447068AE0DF91CF910C9447061F9283
:1016A0000F920FB60F9211242F933F938F939F9316
:1016B000AF93BF938091510190915201A09153013A
:1016C000B09154013091500123E0230F2D3758F58C
:1016D0000196A11DB11D209350018093510190935B
:1016E0005201A0935301B093540180914C01909109
:1016F0004D01A0914E01B0914F010196A11DB11D68
:1017000080934C0190934D01A0934E01B0934F01F3
:10171000BF91AF919F918F913F912F910F900FBEED
:101720000F901F90189526E8230F0296A11DB11D5A
:10173000D2CF1F920F920FB60F9211242F933F9387
:101740004F935F936F937F938F939F93AF93BF93C9
:10175000EF93FF93E0914801F09149010995FF91C2
:10176000EF91BF91AF919F918F917F916F915F9119
:101770004F913F912F910F900FBE0F901F90189592
:10178000789484B5826084BD84B5816084BD85B55C
:10179000826085BD85B5816085BD80916E00816068
:1017A00080936E001092810080918100826080930E
:1017B0008100809181008160809381008091800010
:1017C0008160809380008091B10084608093B1003B
:1017D0008091B00081608093B00080917A00846035
:1017E00080937A0080917A00826080937A00809161
:1017F0007A00816080937A0080917A00806880937B
:101800007A001092C10080EA95E00E94BC0C90938F
:10181000560180935501009709F46DC0109257014D
:101820001092580190936B0180936A018FE080932E
:10183000650180E68093640110925D0110925E0163
:1018400010925F011092600181E0809367018093A4
:1018500068012AE936E030934B0120934A01579AF8
:10186000219A5F98299A239A92EC9093800099E1AB
:10187000909381009CE39093610197EC90936601B3
:1018800097E09093690128E331E03093630120935E
:1018900062012FEF33E030938700209386002AE423
:1018A00030E0309389002093880029E331E03093C1
:1018B0005C0120935B012EE33AE0309349012093D1
:1018C000480180936F00789410925701109258014C
:1018D000E0916A01F0916B01909165018091640142
:1018E0009F01989F200D311D1124C9018E179F075C
:1018F00011F01192FBCF88EA95E090935A01809302
:10190000590186E091E00E943E0B81E291E00E9445
:101910003E0B8CE291E00E943E0B87E391E00E9437
:101920003E0B85EA92E090935A018093590181E23F
:1019300091E00E943E0B8CE291E00E943E0B87E317
:1019400091E00E943E0B88E690E090935A018093CC
:10195000590181E291E00E943E0B8CE291E00E94ED
:101960003E0B87E391E00E943E0BC0E0D0E0209761
:10197000F1F30E940000FBCF0F931F93CF93DF93EF
:101980008230910510F482E090E0E0916E01F091D8
:101990006F0130E020E0B0E0A0E0309799F421152D
:1019A000310509F44AC0281B390B24303105D8F51C
:1019B0008A819B816115710589F1FB019383828383
:1019C000FE0111C0408151810281138148175907DE
:1019D000E0F04817590799F4109761F012960C93AC
:1019E000129713961C933296CF01DF91CF911F91DE
:1019F0000F91089500936E0110936F01F4CF21159C
:101A0000310551F04217530738F0A901DB019A0163
:101A1000BD01DF01F801C1CFEF01F9CF90936F0154
:101A200080936E01CDCFFE01E20FF31F819391935E
:101A30002250310939832883D7CF20916C0130910E
:101A40006D01232B41F42091020130910301309369
:101A50006D0120936C01209100013091010121154D
:101A6000310541F42DB73EB7409104015091050175
:101A7000241B350BE0916C01F0916D01E217F30727
:101A8000A0F42E1B3F0B2817390778F0AC014E5FEE
:101A90005F4F2417350748F04E0F5F1F50936D01BD
:101AA00040936C01819391939FCFF0E0E0E09CCF55
:101AB000CF93DF930097E9F0FC01329713821282F3
:101AC000A0916E01B0916F01ED0130E020E0109720
:101AD000A1F420813181820F931F20916C013091FC
:101AE0006D012817390709F061C0F0936D01E0938B
:101AF0006C01DF91CF910895EA01CE17DF07E8F579
:101B00004A815B819E0141155105B1F7E901FB83D3
:101B1000EA8349915991C40FD51FEC17FD0761F471
:101B2000808191810296840F951FE90199838883B2
:101B3000828193819B838A83F0E0E0E012968D910D
:101B40009C9113970097B9F52D913C911197CD0178
:101B50000296820F931F20916C0130916D0128171E
:101B6000390739F6309751F510926F0110926E01D6
:101B7000B0936D01A0936C01BCCFD383C28340812D
:101B80005181840F951FC817D90761F44E5F5F4FCD
:101B900088819981480F591F518340838A819B8195
:101BA000938382832115310509F0B0CFF0936F0143
:101BB000E0936E019ECFFD01DC01C0CF1382128243
:101BC000D7CFF894FFCF0000700180007869616F73
:101BD0006C616261207465737420323032312D5330
:101BE00045502D31320A007869616F6C6162612065
:101BF00031007869616F6C616261203200786961DF
:081C00006F6C6162612033008A
:107E0000112484B714BE81FFF0D085E080938100F7
:107E100082E08093C00088E18093C10086E0809377
:107E2000C20080E18093C4008EE0C9D0259A86E02C
:107E300020E33CEF91E0309385002093840096BBD3
:107E4000B09BFECF1D9AA8958150A9F7CC24DD24C4
:107E500088248394B5E0AB2EA1E19A2EF3E0BF2EE7
:107E6000A2D0813461F49FD0082FAFD0023811F036
:107E7000013811F484E001C083E08DD089C08234E0
:107E800011F484E103C0853419F485E0A6D080C0E4
:107E9000853579F488D0E82EFF2485D0082F10E0AE
:107EA000102F00270E291F29000F111F8ED06801E7
:107EB0006FC0863521F484E090D080E0DECF843638
:107EC00009F040C070D06FD0082F6DD080E0C81688
:107ED00080E7D80618F4F601B7BEE895C0E0D1E017
:107EE00062D089930C17E1F7F0E0CF16F0E7DF06D8
:107EF00018F0F601B7BEE89568D007B600FCFDCFD4
:107F0000A601A0E0B1E02C9130E011968C91119780
:107F100090E0982F8827822B932B1296FA010C0160
:107F200087BEE89511244E5F5F4FF1E0A038BF0790
:107F300051F7F601A7BEE89507B600FCFDCF97BE46
:107F4000E89526C08437B1F42ED02DD0F82E2BD052
:107F50003CD0F601EF2C8F010F5F1F4F84911BD097
:107F6000EA94F801C1F70894C11CD11CFA94CF0C13
:107F7000D11C0EC0853739F428D08EE10CD085E9AC
:107F80000AD08FE07ACF813511F488E018D01DD067
:107F900080E101D065CF982F8091C00085FFFCCF94
:107FA0009093C60008958091C00087FFFCCF809118
:107FB000C00084FD01C0A8958091C6000895E0E648
:107FC000F0E098E1908380830895EDDF803219F02E
:107FD00088E0F5DFFFCF84E1DECF1F93182FE3DFCA
:107FE0001150E9F7F2DF1F91089580E0E8DFEE27F6
:047FF000FF270994CA
:027FFE00040479
:00000001FF
